:100000000C948F1B0C94B91B0C94B91B0C94B91B4A
:100010000C94B91B0C94B91B0C94B91B0C94B91B10
:100020000C94B91B0C94B91B0C94B91B0C94B91B00
:100030000C94B91B0C941F530C94B91B0C94B91B52
:100040000C94B91B0C94849A0C94EBC10C94B91BBE
:100050000C940B3D0C94B91B0C94B91B0C94B91B5C
:100060000C94B91B0C94B91B0C94B91B0C94B91BC0
:100070000C94B91B0C94B91B0C94B91B0C94B91BB0
:100080000C94B91B0C94B91B0C94B91B30783378C1
:1000900026782A784A784A7837783B7841784578C4
:1000A0005AC15FC164C16EC19CC19CC178C180C18D
:1000B00088C192C146D11FD056D082D156D056D0D9
:1000C00056D056D056D056D056D056D056D056D000
:1000D00056D056D056D056D056D056D056D056D0F0
:1000E00056D056D056D056D056D056D056D056D0E0
:1000F0007CD156D056D056D056D056D056D056D0A9
:1001000056D055D156D056D056D056D056D056D0BF
:1001100056D056D056D056D099D153D0084AD73B56
:100120003BCE016E84BCBFFDC12F3D6C74319ABDC6
:1001300056833DDA3D00C77F11BED9E4BB4C3E91EA
:100140006BAAAABE000000803F05A84CCDB2D44ED9
:10015000B93836A9020C50B9918688083CA6AAAADB
:100160002ABE000000803F004E414E494E4954597E
:10017000494E46CDCCCC3D0AD7233C17B7D1387772
:10018000CC2B329595E6241FB14F0A000020410088
:1001900000C84200401C4620BCBE4CCA1B0E5AAED2
:1001A000C59D7400407A10F35A00A0724E180900E1
:1001B00010A5D4E80000E87648170000E40B5402CC
:1001C0000000CA9A3B000000E1F505000080969807
:1001D00000000040420F000000A086010000001057
:1001E0002700000000E80300000000640000000099
:1001F000000A00000000000100000000002C76D87A
:1002000088DC674F0823DFC1DFAE59E1B1B796E55F
:10021000E3E453C63AE651997696E8E6C28426EBC3
:10022000898C9B62ED407C6FFCEFBC9C9F40F2BAD6
:10023000A56FA5F490055A2AF75C936B6CF9676D6E
:10024000C11BFCE0E40D47FEF520E6B500D0ED90C3
:100250002E0300943577050080841E080000204E90
:100260000A000000C80C333333330F986E12831129
:1002700041EF8D2114893BE65516CFFEE6DB18D100
:10028000844B381BF77C1D901DA4BBE424203284D2
:10029000725E228100C9F124ECA1E53D27434F4D58
:1002A0004D554E49434154494F4E004452595255C1
:1002B0004E004552524F525300494E464F0045435F
:1002C000484F0020746F6F206C6F6E6720657874E4
:1002D000727573696F6E2070726576656E74656491
:1002E0000A0020636F6C6420657874727573696F9F
:1002F0006E2070726576656E7465640A0047322FF1
:1003000047332062616420706172616D657465724B
:10031000730A00536C6565702E2E2E0033442050F6
:1003200072696E7465722072656164792E0052651F
:1003300073756D696E67207072696E7400436C69C5
:10034000636B20746F20726573756D652E2E2E00A1
:100350004E6F206D6F76652E00456E642066696C69
:1003600065206C6973740A00426567696E2066696E
:100370006C65206C6973740A005446207072696E53
:1003800074696E67206279746520004E6F74205422
:1003900046207072696E74696E670A0046696C6502
:1003A0002064656C657465643A0044656C657469C5
:1003B0006F6E206661696C65642C2046696C653AD5
:1003C00020006F70656E206661696C65642C204644
:1003D000696C653A20002569730025696D202569DF
:1003E00073002569682025696D20256973002569DA
:1003F00064202569682025696D20256973002569B9
:100400007920256964202569682025696D20256982
:1004100073005072696E742074696D653A200050E3
:10042000726F7465637465642050696E0A00457864
:1004300074727564657220257300334420507269AC
:100440006E7465722072656164792E00BE02B90215
:10045000B202AB029D026F66660044454255473AC0
:10046000004B494C4C45442E20004D313133205334
:10047000006F6B003344205072696E746572204FB8
:1004800066662E004361703A454D455247454E43DE
:10049000595F5041525345523A300A004361703A15
:1004A000434153455F4C494748545F42524947488E
:1004B000544E4553533A300A004361703A544F4703
:1004C000474C455F4C49474854533A300A00436112
:1004D000703A534F4654574152455F504F5745521B
:1004E0003A300A004361703A4C4556454C494E47F4
:1004F0005F444154413A300A004361703A5A5F50B8
:10050000524F42453A300A004361703A4155544FC8
:100510004C4556454C3A300A004361703A505249B6
:100520004E545F4A4F423A310A004361703A50528A
:100530004F47524553533A300A004361703A415590
:10054000544F5245504F52545F54454D503A310A22
:10055000004361703A454550524F4D3A310A0046CA
:1005600049524D574152455F4E414D453A4D61729A
:100570006C696E20312E312E362E32202847697458
:100580006875622920534F555243455F434F444598
:100590005F55524C3A68747470733A2F2F676974C0
:1005A0006875622E636F6D2F4D61726C696E46695E
:1005B000726D776172652F4D61726C696E20505259
:1005C0004F544F434F4C5F56455253494F4E3A316B
:1005D0002E30204D414348494E455F545950453ACD
:1005E0003344205072696E746572204558545255D8
:1005F0004445525F434F554E543A31205555494476
:100600003A63656465326132662D343161322D346E
:100610003734382D396231322D63353563363266E1
:1006200033363766660A002F2F20004D31343520CF
:10063000533C696E6465783E206F7574206F662048
:1006400072616E67652028302D31290A0053657468
:1006500074696E672054726176656C2041636365CE
:100660006C65726174696F6E3A20005365747469C9
:100670006E67205265747261637420416363656CB8
:1006800065726174696F6E3A200053657474696EA7
:1006900067205072696E7420416363656C65726196
:1006A00074696F6E3A200053657474696E672050E8
:1006B00072696E7420616E642054726176656C207C
:1006C000416363656C65726174696F6E3A200020E6
:1006D0005A00205900580020204D61783A2000200F
:1006E0005A00205900580020204D696E3A20004FD2
:1006F0006E20004F666600536F667420656E6473EB
:10070000746F70733A200000010F150E12FF161758
:100710000E13FF03021A14FFFFFF0C04FFFFFF017B
:10072000000EFFFF0C190DFF18FFFFFFFFFFFF205A
:10073000643A0020693A0020703A0043290A0061B7
:10074000626C656420286D696E2074656D70200090
:10075000436F6C6420657874727564657320617290
:100760006520004F666673657473206170706C69F4
:100770006564004572723A20546F6F206661722181
:1007800000546F6F206661722066726F6D20726513
:10079000666572656E636520706F696E740A004EDF
:1007A0006F2063617365206C696768740A00416338
:1007B000746976652045787472756465723A2000B4
:1007C000556E6B6E6F776E20636F6D6D616E643A00
:1007D0002022004B494C4C45442E200053544F508E
:1007E0005045442E20005072696E746572207374F7
:1007F0006F707065642064756520746F2065727217
:100800006F72732E20466978207468652065727255
:100810006F7220616E6420757365204D39393920FF
:10082000746F20726573746172742E202854656D24
:100830007065726174757265206973207265736585
:10084000742E20536574206974206166746572206B
:1008500072657374617274696E67290A004E6F2045
:100860004C696E65204E756D62657220776974689B
:1008700020636865636B73756D2C204C6173742005
:100880004C696E653A20004E6F20436865636B7358
:10089000756D2077697468206C696E65206E756D62
:1008A0006265722C204C617374204C696E653A202D
:1008B00000636865636B73756D206D69736D61743A
:1008C00063682C204C617374204C696E653A20007B
:1008D0004C696E65204E756D626572206973206E7D
:1008E0006F74204C617374204C696E65204E756D79
:1008F0006265722B312C204C617374204C696E65DB
:100900003A20004D313130004D3331004D38342024
:10091000582059205A2045005446207265616420B1
:100920006572726F720A00446F6E65207072696E34
:1009300074696E672066696C650A0020496E76618D
:100940006C696420657874727564657220000000BB
:100950000000000000000000000000006B430000E9
:100960006B4300007A434D36303020486F74656E1B
:100970006420746F6F20636F6C6420746F206368F1
:10098000616E67652066696C616D656E740A002032
:10099000746F6F206C6F6E67206578747275736901
:1009A0006F6E2070726576656E7465640A002063F0
:1009B0006F6C6420657874727573696F6E207072E5
:1009C0006576656E7465640A0024F4D43050C38E75
:1009D00020C2A24017828B7011127A910D816CD9BE
:1009E0000AA861E108C7586607615143061E4B5DBE
:1009F00005C145A7041A411104093D980371393115
:100A0000034036DB0265339102D4305402802E1D40
:100A100002632CEE01752AC501B028A001102781C0
:100A2000018F2564012B244B01E0223401AC211FEE
:100A3000018D200D01801FFC00841EED00971DDF3D
:100A400000B81CD200E61BC600201BBC00641AB212
:100A500000B219A8000A19A0006A189900D11791CC
:100A60000040178B00B516840031167E00B315794F
:100A7000003A157300C7146F0058146A00EE13662D
:100A8000008813630025135E00C7125B006C1257C9
:100A90000015125400C111510070114F0021114B6B
:100AA00000D61049008D1047004610440002104245
:100AB00000C00F4000800F3E00420F3C00060F3B7D
:100AC00000CB0E3800930E37005C0E3500270E3435
:100AD00000F30D3200C10D3100900D3000600D2E7D
:100AE00000320D2D00050D2C00D90C2B00AE0C2969
:100AF00000850C29005C0C2700350C27000E0C2605
:100B000000E80B2400C40B2400A00B23007D0B2362
:100B1000005A0B2100390B2100180B2000F80A1F86
:100B200000D90A1E00BB0A1E009D0A1D00800A1D76
:100B300000630A1C00470A1B002C0A1B00110A1A3A
:100B400000F7091A00DD091900C4091900AB0919D9
:100B500000920917007B091800630917004C091659
:100B60000036091600200916000A091500F50815B7
:100B700000E0081400CC081400B8081400A40814FD
:100B800000900813007D0812006B0813005808122B
:100B90000046081200340811002308110012081141
:100BA0000001081100F0071000E0071000D0071046
:100BB00000C0071000B0070F00A107100091070E3A
:100BC0000083070F0074070F0065070E0057070E1C
:100BD0000049070E003B070D002E070E0020070DF1
:100BE0000013070D0006070D00F9060C00ED060DB9
:100BF00000E0060C00D4060C00C8060C00BC060C75
:100C000000B0060C00A4060B0099060C008D060B24
:100C10000082060B0077060B006C060B0061060ACB
:100C20000057060B004C060A0042060A0038060A66
:100C3000002E060A0024060A001A060A00100609F9
:100C40000007060A00FD050900F4050900EB050987
:100C500000E2050900D9050900D0050900C705090A
:100C600000BE050900B5050800AD050800A5050989
:100C7000009C050800940508008C05080084050800
:100C8000007C050800740508006C05070065050870
:100C9000005D050700560508004E050700470507DB
:100CA000004005080038050700310507002A050740
:100CB00000230507001C050600160507000F0507A1
:100CC000000805060002050700FB040600F50407FE
:100CD00000EE040600E8040600E2040700DB040658
:100CE00000D5040600CF040600C9040600C30406AC
:100CF00000BD040600B7040600B1040500AC0406FC
:100D000000A6040600A00405009B04060095040547
:100D100000900406008A040500850405008004068E
:100D2000007A04050075040500700405006B0405D5
:100D30000066040500610405005C04050057040515
:100D400000520405004D0405004804050043040555
:100D5000003E0404003A0405003504050030040494
:100D6000002C04050027040400230405001E0404CD
:100D7000001A04040016040500110404000D040404
:100D800000090405000404040000040400FC03043A
:100D900000F8030400F4030400F0030400EC03046F
:100DA00000E8030400E4030400E0030400DC03049F
:100DB00000D8030400D4030400D0030400CC0304CF
:100DC00000C8030300C503030024F404D9201BC496
:100DD0000C5C0E9804C4095F0265077101F405F903
:100DE00000FB04B30048048700C1036900580355A1
:100DF0000003034500BE023A008402310053022A78
:100E0000002902250004022000E4011C00C8011989
:100E100000AF011700980114008401130071011044
:100E2000006101100051010E0043010D0036010B5D
:100E3000002B010B0020010B00150109000C01091A
:100E40000003010800FB000800F3000800EB0007A6
:100E500000E4000600DE000600D8000600D200060E
:100E600000CC000500C7000500C2000500BD00045D
:100E700000B9000400B5000400B1000400AD000496
:100E800000A9000400A5000300A20003009F0004C5
:100E9000009B0003009800030095000200930003EC
:100EA00000900003008D0002008B00030088000208
:100EB000008600020084000300810002007F00021F
:100EC000007D0002007B0002007900020077000133
:100ED000007600020074000200720001007100023E
:100EE000006F0002006D0001006C0002006A00014A
:100EF0000069000200670001006600010065000152
:100F00000064000200620001006100010060000155
:100F1000005F0002005D0001005C0001005B000159
:100F2000005A00010059000100580001005700015B
:100F3000005600010055000100540001005300005C
:100F40000053000100520001005100010050000157
:100F5000004F0001004E0000004E0001004D000156
:100F6000004C0001004B0000004B0001004A000152
:100F7000004900010048000000480001004700014E
:100F80000046000000460001004500000045000149
:100F90000044000100430000004300010042000043
:100FA000004200010041000000410001004000013A
:100FB000003F0000003F0001003E0000003E000135
:100FC000003D0000003D0001003C0000003C00002E
:100FD000003C0001003B0000003B0001003A000023
:100FE000003A00010039000000390001003800001B
:100FF0000038000000380001003700000037000111
:101000000036000000360000003600010035000008
:1010100000350000003500010034000000340000FD
:1010200000340001003300000033000000330001F1
:1010300000320000003200000032000100310000E8
:1010400000310000003100010030000000300000DD
:1010500000300001002F0000002F0000002F0000D2
:10106000002F0001002E0000002E0000002E0001C5
:10107000002D0000002D0000002D0000002D0001BB
:10108000002C0000002C0000002C0000002C0001AF
:10109000002B0000002B0000002B0000002B0001A3
:1010A000002A0000002A0000002A0000002A000197
:1010B000002900000029000000290000002900008C
:1010C000002900010028000000280000002800007E
:1010D0000028000000280001002700000027000071
:1010E0000027000000270000002700010026000064
:1010F0000026000000260000002600000026000157
:10110000002500000025000000250000002500004B
:10111000002500000025000100240000002400003C
:10112000002400000024000000240001002300002F
:101130000023000000230000002300000023000023
:101140000023000000230001002200000022000014
:101150000022000000220000002200000022000106
:1011600000210000002100000021000000210000FB
:1011700000210000002100000021000100200000EB
:1011800000200000002000000020000000200000DF
:10119000002000000020000000200001001F0000CF
:1011A000001F0000001F0000001F0000001F0000C3
:1011B000001F0000001F0001001E0000001E0000B4
:1011C000001E0000001E0000004D38342058205939
:1011D000205A2045006265640A002C2073797374DC
:1011E000656D2073746F707065642120486561744B
:1011F00065725F49443A200048656174696E6720F2
:101200006661696C65640048656174696E67206633
:1012100061696C65640048656174696E6720666128
:10122000696C65640048656174696E672066616910
:101230006C65640000060900FE0000000000010962
:101240000008FE000005080806000040F0C8888875
:10125000987810050808060000C0F88888888888F3
:10126000F80505050600012030F8302005080806BD
:1012700000002070F820202020E00509090600FF6A
:101280002070A8A8B8888870200509090600FFE02A
:1012900080C0B0A8283028280509090600FFF8A852
:1012A0008888888888A8F8050A0A0600FE20505019
:1012B000505088A8A8887003030306000340A0408C
:1012C000000000000000000000000000000000001E
:1012D000000000000000000000000000000000000E
:1012E00000000000000000000000000000000000FE
:1012F00000000000000000000000000000000000EE
:1013000000000000000000000000000000000000DD
:1013100000000000000000000000000000000000CD
:1013200000000000000000000000000000000000BD
:1013300000000000000000000000000000000000AD
:10134000000000000000000000000000000000009D
:10135000000000000000000000000000000000008D
:10136000000000000000000000000000000000007D
:10137000000000000000000000000000000000006D
:10138000000000000000000000000000000000005D
:10139000000000000000000000000000000000004D
:1013A000000000000000000000000000000000003D
:1013B000000000000000000000000000000000002D
:1013C000000000000000000000000000000000001D
:1013D000000000000000000000000000000000000D
:1013E00000000000000000000000000000000000FD
:1013F00000000000000000000000000000000000ED
:1014000000000000000000000000000000000000DC
:1014100000000000000000000000000000000000CC
:1014200000000000000000000000000000000000BC
:1014300000000000000000000000000000000000AC
:10144000000000000000000000000000000000009C
:1014500003F07F00007F80000E000000000000000D
:10146000061831800030C0000E00000C00000000A3
:10147000060C30C0003060000000000C00000000CE
:10148000060C30C0003060000000000C00000000BE
:10149000000C3060003067BE1E07F83F80F87BE02C
:1014A000001830600030C1E606038C0C038C1E600F
:1014B00000F03060003F81C006030C0C03061C00E6
:1014C000001C30600030018006030C0C060618007A
:1014D000000630600030018006030C0C07FE180087
:1014E000000630600030018006030C0C0600180076
:1014F000060630C00030018006030C0C0600180000
:10150000060630C00030018006030C0CC30618002C
:10151000060C31800030018006030C0CC38C1800CF
:1015200003F87F00007807F01F879E0780F87F0090
:1015300000000000000000000000000000000000AB
:10154000000000000000000000000000000000009B
:10155000000000000000000000000000000000008B
:10156000000000000000000000000000000000007B
:10157000000000000000000000000000000000006B
:10158000000000000000000000000000000000005B
:10159000000000000000000000000000000000004B
:1015A000000000000000000000000000000000003B
:1015B000000000000000000000000000000000002B
:1015C000000000000000000000000000000000001B
:1015D000000000000000000000000000000000000B
:1015E00000000000000000000000000000000000FB
:1015F00000000000000000000000000000000000EB
:1016000000000000000000000000000000000000DA
:1016100000000000000000000000000000000000CA
:1016200000000000000000000000000000000000BA
:1016300000000000000000000000000000000000AA
:10164000000000000000000000000000000000009A
:10165000000000000000000000000000000000008A
:10166000000000000000000000000000000000007A
:10167000000000000000000000000000000000006A
:10168000000000000000000000000000000000005A
:10169000000000000000000000000000000000004A
:1016A000000000000000000000000000000000003A
:1016B000000000000000000000000000000000002A
:1016C00025753A2530327500253032753A2530328D
:1016D000750025756420253032753A253032750045
:1016E0005A005900580009200000000000000000C6
:1016F0000000000000003FFFF000000000000000BC
:101700000000000000003800700000000000000031
:1017100000000000000030FC30000000000000006D
:1017200000000000000020FC10003E0FF000000050
:1017300000000000000020781000C18618000000A2
:1017400000000000000020301000C1860C000000E6
:101750000000000000002C00D000018604001FE003
:101760000000104100002E31D000030604003FF0BD
:101770000000082080002F7BD0001F0604003FF0EF
:101780000000082080002F7BD000030604003FF0FB
:101790000000104100002E31D000018604001FE03F
:1017A0000000208200002C00D000C1860C001FE049
:1017B00000004104000020301000C18618003FF0F6
:1017C000000041040000207810003E0FF0003FF0C0
:1017D00000002082000020FC1000000000003FF00C
:1017E00000001041000030FC3000000000000FC07D
:1017F00000000000000038007000000000000780BA
:101800000000FFFFC0003FFFF000000000000300E9
:101810000000FFFFC000000000000000000000000A
:101820000000000000003FFFF0000000000000008A
:101830000000000000003800700000000000000000
:1018400000000000000033873000000000000000AE
:10185000000000000000278790003E0FF00000000D
:101860000000000000002F87D000C1861800000093
:101870000000000000002F87D000C1860C0000008F
:101880000000000000002F03D000018604001FE0CC
:1018900000000820800020301000030604003FF004
:1018A000000004104000207810001F0604003FF0E4
:1018B00000000410400020781000030604003FF0F0
:1018C00000000820800020301000018604001FE086
:1018D0000000104100002F03D000C1860C001FE063
:1018E0000000208200002F87D000C18618003FF042
:1018F0000000208200002F87D0003E0FF0003FF054
:1019000000001041000027879000000000003FF019
:1019100000000820800033873000000000000FC066
:101920000000000000003800700000000000078088
:101930000000FFFFC0003FFFF000000000000300B8
:101940000000FFFFC00000000057726974696E67F5
:1019500020746F2066696C653A20006F70656E2098
:101960006661696C65642C2046696C653A20006F7D
:1019700070656E206661696C65642C2046696C65D3
:101980003A200046696C652073656C656374656414
:101990000A002053697A653A200046696C65206F19
:1019A00070656E65643A20006F70656E20666169CF
:1019B0006C65642C2046696C653A20002066696C71
:1019C000653A20004E6F7720002220706F7300224E
:1019D00020706172656E743A2200535542524F5521
:1019E00054494E452043414C4C20746172676574E4
:1019F0003A22004B494C4C45442E200074727969C0
:101A00006E6720746F2063616C6C207375622D6744
:101A1000636F64652066696C6573207769746820FC
:101A2000746F6F206D616E79206C6576656C732EB6
:101A3000204D4158206C6576656C2069733A0043EF
:101A4000616E6E6F74206F70656E2073756264696D
:101A500072200054462063617264206F6B0A006F2D
:101A600070656E526F6F74206661696C65640A0000
:101A7000766F6C756D652E696E6974206661696C30
:101A800065640A004572726F723A00544620696EAE
:101A90006974206661696C0A006175746F25692E2E
:101AA00067004D3234004D323320257300F40100BD
:101AB00000F401000064000000E80300000000FAE8
:101AC000430000FA430000A0400000C8410000A00D
:101AD000420000A0420000C8430000BA4220440077
:101AE00020490020204D33303120500050494420FF
:101AF00073657474696E67733A0A00204600204269
:101B00000020480020204D3134352053004D6174B1
:101B1000657269616C2068656174757020706172AE
:101B2000616D65746572733A0A00205A002059008D
:101B300020204D323036205800486F6D65206F668A
:101B4000667365743A0A00204500205A0020590047
:101B500020580020420020540020204D32303520F3
:101B60005300416476616E6365643A20533C6D694D
:101B70006E5F66656564726174653E20543C6D6994
:101B80006E5F74726176656C5F66656564726174C0
:101B9000653E20423C6D696E5F7365676D656E746E
:101BA0005F74696D655F6D733E20583C6D61785F51
:101BB00078795F6A65726B3E205A3C6D61785F7A16
:101BC0005F6A65726B3E20453C6D61785F655F6A58
:101BD00065726B3E0A0020540020520020204D32D6
:101BE0003034205000416363656C65726174696FC5
:101BF0006E2028756E6974732F7332293A20503C19
:101C00007072696E745F616363656C3E20523C72F2
:101C10006574726163745F616363656C3E20543CFC
:101C200074726176656C5F616363656C3E0A002067
:101C30004500205A0020590020204D3230312058D4
:101C4000004D6178696D756D20416363656C6572E7
:101C50006174696F6E2028756E6974732F733229F1
:101C60003A0A00204500205A0020590020204D3219
:101C700030332058004D6178696D756D206665655B
:101C80006472617465732028756E6974732F73298B
:101C90003A0A00204500205A0020590020204D39E2
:101CA0003220580053746570732070657220756E11
:101CB00069743A0A0020204D3230302044300A0046
:101CC00020204D3230302044002044697361626C22
:101CD00065640A0046696C616D656E742073657495
:101CE00074696E67733A0020204D313439204320E7
:101CF0003B20556E69747320696E2043656C73696F
:101D000075730A002020473231202020203B2055C7
:101D10006E69747320696E206D6D0A007A5F6D695B
:101D20006E3A2000795F6D696E3A2000785F6D69C8
:101D30006E3A20005265706F7274696E6720656E2E
:101D40006473746F70207374617475730A004261F8
:101D5000627973746570205A004D363030204230FD
:101D6000004368616E67652066696C616D656E74BD
:101D7000004261627973746570205A00466C6F7717
:101D800000466C6F7700466C6F770046616E20737B
:101D9000706565640046616E207370656564004619
:101DA000616E20737065656400426564004265641D
:101DB00000426564004E6F7A7A6C65004E6F7A7AE5
:101DC0006C65004E6F7A7A6C6500537065656400CF
:101DD0005370656564005370656564004D61696E9C
:101DE000005072656865617420504C4120456E64F6
:101DF000005072656865617420504C4100507265F6
:101E00006865617420504C412042656400507265E1
:101E1000706172650050726568656174204142535B
:101E200020456E64005072656865617420414253BC
:101E300020426564005072656865617420414253B8
:101E4000005072657061726500473238004D34325F
:101E500038005072656865617420504C4100436FD2
:101E60006F6C646F776E004368616E6765206669AA
:101E70006C616D656E740044697361626C6520739A
:101E800074657070657273004D383400536574204A
:101E9000686F6D65206F6666736574730050726558
:101EA0006865617420414253004175746F20686F0A
:101EB0006D65004D6F76652061786973004D6169CD
:101EC0006E0000002100240027002A0000002200EC
:101ED000250028002B0000002000230026002900F8
:101EE00002020202020202020404040404040404C2
:101EF00003030303030303030101010101010101C2
:101F000001020408102040800102040810204080D3
:101F100001020408102040808040201008040201C3
:101F2000000000010200090A000000000403080785
:101F300000000000000000000000000000000000A1
:101F40002020506C616E6E657242756666657242E5
:101F5000797465733A20002046726565204D656D81
:101F60006F72793A2000436F6D70696C65643A2036
:101F700041756720203420323031390A00207C201E
:101F8000417574686F723A20456E6465722D330A2C
:101F900000323031392D30372D323600204C61730C
:101FA0007420557064617465643A2000312E312EBE
:101FB000362E320A004D61726C696E0020536F66D6
:101FC00074776172652052657365740A00205761E9
:101FD000746368646F672052657365740A002042F9
:101FE000726F776E206F75742052657365740A0086
:101FF0002045787465726E616C2052657365740A51
:1020000000506F77657255700A0073746172740ABC
:10201000006572726F722077726974696E672074DE
:102020006F2066696C650A00456E6473746F707327
:1020300020256320256320256320256300205A3A4C
:102040000020593A0020583A00656E6473746F702E
:1020500073206869743A2000446F6E65207361765E
:10206000696E672066696C652E0A004D3239002062
:102070002F002042403A0020403A004865617469D0
:102080006E6720646F6E652E0020573A00457874A5
:102090007275646572202573003344205072696E36
:1020A0007465722072656164792E004265642064F3
:1020B0006F6E652E0020573A0042656420486561C6
:1020C00074696E672E00205A3A0020593A00204366
:1020D0006F756E7420583A0020453A00205A3A0035
:1020E00020593A00583A0023646566696E652020DD
:1020F00044454641554C545F4B642000236465665B
:10210000696E65202044454641554C545F4B69201B
:102110000023646566696E65202044454641554C40
:10212000545F4B702000504944204175746F7475A2
:102130006E652066696E69736865642120507574E8
:1021400020746865206C617374204B702C204B697F
:1021500020616E64204B6420636F6E7374616E74D3
:10216000732066726F6D2062656C6F7720696E7484
:102170006F20436F6E66696775726174696F6E2E4A
:10218000680A00504944204175746F74756E65206B
:102190006661696C6564212074696D656F75740A88
:1021A00000504944204175746F74756E65206661F6
:1021B000696C6564212054656D7065726174757217
:1021C0006520746F6F20686967680A00204B643A65
:1021D0002000204B693A2000204B703A20000A2052
:1021E000436C617373696320504944200A00205492
:1021F000753A2000204B753A2000206D61783A2016
:1022000000206D696E3A200020643A200020626947
:1022100061733A200056652D6A65726B0056652D14
:102220006A65726B0056652D6A65726B00567A2D71
:102230006A65726B00567A2D6A65726B0056792D4D
:102240006A65726B0056792D6A65726B0056792D3E
:102250006A65726B0056782D6A65726B0056782D30
:102260006A65726B0056782D6A65726B004D6F74EB
:10227000696F6E004573746570732F6D6D004573E3
:10228000746570732F6D6D005A73746570732F6D64
:102290006D005A73746570732F6D6D00597374659A
:1022A00070732F6D6D005973746570732F6D6D00B1
:1022B0005873746570732F6D6D0058737465707307
:1022C0002F6D6D004D6F74696F6E00537465707380
:1022D0002F6D6D004A65726B00416363656C6572BA
:1022E0006174696F6E0056656C6F63697479004341
:1022F0006F6E74726F6C0046696C2E204469612E9B
:102300000046696C2E204469612E004F6666004FBE
:102310006E20004520696E206D6D3300436F6E7432
:10232000726F6C0043616E6E6F7420656E746572BF
:10233000207375626469723A2000022E2E000152E9
:10234000656672657368004D61696E004D6F7665F4
:102350002058004D6F76652059004D6F7665205AE4
:10236000004578747275646572004D6F7665203033
:102370002E316D6D004D6F766520316D6D004D6FA6
:1023800076652031306D6D004D6F7665206178691E
:1023900073004578747275646572004D6F766520C0
:1023A0005A004D6F76652059004D6F7665205800B4
:1023B0004578747275646572004D6F7665205A00B9
:1023C0004D6F76652059004D6F766520580050722C
:1023D0006570617265004C6F616420736574746927
:1023E0006E677300496E697469616C697A6520452E
:1023F0004550524F4D0053746F726520736574746D
:10240000696E67730046696C616D656E74004D6F2F
:1024100074696F6E0054656D706572617475726574
:10242000004D61696E0050726568656174204142BB
:102430005320636F6E66005072656865617420504A
:102440004C4120636F6E660046616E207370656557
:10245000640046616E2073706565640046616E209D
:10246000737065656400426564004265640042659E
:1024700064004E6F7A7A6C65004E6F7A7A6C6500F4
:102480004E6F7A7A6C6500436F6E74726F6C005396
:10249000746F72652073657474696E67730042654A
:1024A000640042656400426564004E6F7A7A6C6530
:1024B000004E6F7A7A6C65004E6F7A7A6C650046D2
:1024C000616E2073706565640046616E207370658F
:1024D00065640046616E2073706565640054656DC7
:1024E000706572617475726500426175643A20317D
:1024F0003135323030004578747275646572733AE4
:102500002031003344205072696E74657200312EA0
:10251000312E362E320041626F7574205072696E12
:102520007465720020204E6F7A7A6C653A20002024
:10253000004261636B004D696E696D756D20546575
:102540006D70206973203137302E004865617469E1
:102550006E67206661696C656400457874727564A5
:1025600065206D6F726500526573756D65207072C0
:10257000696E7400524553554D45204F5054494F94
:102580004E533A0020204E6F7A7A6C653A200063F1
:1025900068616E6765006F66207468652066696CA7
:1025A000616D656E74005761697420666F72207387
:1025B00074617274005052494E5420504155534535
:1025C000440020204E6F7A7A6C653A200020006625
:1025D000696C616D656E7420756E6C6F6164005717
:1025E00061697420666F72005052494E5420504108
:1025F000555345440020204E6F7A7A6C653A20008E
:102600002000506C6561736520776169742E2E2EF1
:102610000048656174696E67206E6F7A7A6C650038
:102620005052494E54205041555345440020204EAD
:102630006F7A7A6C653A2000200068656174206EBC
:102640006F7A7A6C652E00507265737320627574B0
:10265000746F6E20746F005052494E542050415593
:102660005345440020204E6F7A7A6C653A200074FE
:102670006F20636F6E74696E75652E2E2E00616E0D
:102680006420707265737320627574746F6E004994
:102690006E736572742066696C616D656E7400504E
:1026A00052494E54205041555345440020204E6F0E
:1026B0007A7A6C653A2000200066696C616D656EFF
:1026C00074206C6F6164005761697420666F7200DA
:1026D0005052494E54205041555345440020204EFD
:1026E0006F7A7A6C653A2000200066696C616D65CE
:1026F0006E74206578747275646500576169742022
:10270000666F72005052494E542050415553454413
:1027100000746F20726573756D6500576169742070
:10272000666F72207072696E74005052494E542068
:102730005041555345440070012C0190012701B0D0
:10274000012201C0011D01F0011801100213013026
:10275000020E016002090190020401C002FF0000A4
:1027600003FA004003F5008003F000D003EB0020E3
:1027700004E6007004E100E004DC004005D700C07E
:1027800005D2004006CD00D006C8008007C3003047
:1027900008BE00F008B900C009B400B00AAF00B02C
:1027A0000BAA00D00CA500000EA000500F9B00C08B
:1027B0001096005012910000148C00C0158700B0D4
:1027C000178200B0197D00D01B7800001E730040F6
:1027D000206E0090226900F024640040275F009082
:1027E000295A00E02B5500102E500020304B0010CD
:1027F000324600E033410090353C0010373700701E
:10280000383200A0392D00B03A2800A03B230060E8
:102810003C1E00103D1900903D1400103E0F00704A
:102820003E0A00C03E0500003F0000403FFBFF8025
:102830003FF6FFC03FF1FF544845524D414C2052F6
:10284000554E4157415900546865726D616C205274
:10285000756E61776179004572723A204D494E5428
:10286000454D5020424544004572723A204D494E34
:1028700054454D50004D494E54454D502074726999
:10288000676765726564004572723A204D4158541D
:10289000454D5020424544004572723A204D415802
:1028A00054454D50004D415854454D502074726967
:1028B00067676572656400506C6561736520726559
:1028C000736574005052494E5445522048414C544F
:1028D0004544005072696E7465722068616C74655D
:1028E000642E206B696C6C28292063616C6C6564B4
:1028F000210A0062696E004D31313720494E564140
:102900004C494420444154412E004D313137205030
:1029100072696E74696E672E2E2E004730205A251C
:102920007300473238205830205930004730205A41
:10293000257300473932205A2573204525730062DC
:10294000696E0000000000000000000000000000B0
:10295000004842000048420000804000000000574C
:1029600061726E696E673A20486F6D696E672042CA
:10297000756D702044697669736F72203C20310A4E
:10298000000202040000A0400000A040000000403F
:1029900000006B4300006B4300007A43FFFFFF7CA5
:1029A0003C3E5E2B3D3F2F5B5D3B2C2A225C00654D
:1029B0006E7175657565696E672022006563686F65
:1029C0003A002E0A006F70656E206661696C65645E
:1029D0002C2046696C653A200057726974696E67ED
:1029E00020746F2066696C653A20005072696E74BD
:1029F0002070617573656400473020463330303095
:102A000020583020593000004730205A2573004D9F
:102A100031303920532569004D3134302053256938
:102A2000004D3130362053323535004D31303920AC
:102A3000532569004D3139302053256900507269A2
:102A40006E742061626F727465640053746F7020DD
:102A50007072696E7400526573756D65207072696D
:102A60006E7400506F7765722D4C6F7373205265D2
:102A7000636F766572793F00496E69742E20544603
:102A80002063617264004D3231004E6F2054462045
:102A900063617264004368616E6765205446206319
:102AA000617264004D3231005072696E742066723A
:102AB0006F6D2054460053746F70207072696E748D
:102AC00000526573756D65207072696E7400506197
:102AD000757365207072696E740053746F70207026
:102AE00072696E7400526573756D65207072696EDF
:102AF000740041626F7574205072696E7465720063
:102B00005061757365207072696E7400436F6E74E6
:102B1000726F6C00507265706172650054756E65FD
:102B200000496E666F2073637265656E000006096A
:102B300000FE070192032120FFFF08FF07FF0000AE
:102B400000060000010707060200808080808000E8
:102B500080030202060105A0A00507070600005039
:102B600050F850F850500507070600002078A07074
:102B700028F020050707060000C0C810204098185C
:102B80000507070600006090A040A89068020303B4
:102B9000060104C040800307070601002040808032
:102BA000804020030707060100804020202040804D
:102BB00005050506000120A870A8200505050600EA
:102BC000012020F820200203030602FFC0408005F8
:102BD0000101060003F8020202060200C0C005055A
:102BE0000506000108102040800507070600007058
:102BF00088888888887003070706010040C0404025
:102C00004040E0050707060000708808708080F8E3
:102C1000050707060000F81020100808F005070750
:102C200006000010305090F810100507070600004D
:102C3000F880F0080888700507070600007080809B
:102C4000F0888870050707060000F808102020208B
:102C500020050707060000708888708888700507BF
:102C600007060000708888780808700205050602CB
:102C700000C0C000C0C00206060602FFC0C000C0FF
:102C80004080040707060000102040804020100507
:102C90000303060002F800F804070706010080405D
:102CA00020102040800507070600007088081020CB
:102CB000002005070706000070880868A8A87005AE
:102CC0000707060000708888F888888805070706C7
:102CD0000000F08888F08888F0050707060000707B
:102CE000888080808870050707060000F088888843
:102CF0008888F0050707060000F88080F08080F8DB
:102D0000050707060000F88080F08080800507072F
:102D1000060000708880B8888870050707060000E4
:102D2000888888F8888888010707060200808080E4
:102D30008080808005070706000038101010109072
:102D4000600507070600008890A0C0A090880507CE
:102D500007060000808080808080F8050707060055
:102D60000088D8A888888888050707060000888812
:102D7000C8A8988888050707060000708888888892
:102D80008870050707060000F08888F080808005BD
:102D9000070706000070888888A89068050707065E
:102DA0000000F08888F0A0908805070706000078EA
:102DB0008080700808F0050707060000F820202032
:102DC00020202005070706000088888888888870EA
:102DD00005070706000088888888885020050707AF
:102DE0000600008888888888A85005070706000024
:102DF0008888502050888805070706000088888842
:102E000050202020050707060000F8081020408009
:102E1000F8030707060100E08080808080E0050558
:102E2000050600018040201008030707060100E0A6
:102E30002020202020E00503030600042050880500
:102E40000101060000F802020206020580400505A5
:102E500005060000700878887805070706000080DE
:102E600080B0C88888F0050505060000708080885D
:102E70007005070706000008086898888878050527
:102E8000050600007088F88070050707060000300E
:102E900048E0404040400506060600FF70888878FC
:102EA00008700507070600008080B0C88888880180
:102EB00007070602008000808080808003080806E3
:102EC00001FF200020202020A0400407070600006A
:102ED000808090A0C0A090030707060100C040407A
:102EE000404040E0050505060000D0A8A8A8A805B8
:102EF0000505060000B0C88888880505050600009D
:102F000070888888700506060600FFF08888F080C3
:102F1000800506060600FF788888780808050505FC
:102F2000060000B0C880808005050506000070809E
:102F30007008F00407070600004040E040404030C1
:102F400005050506000088888898680505050600BF
:102F50000088888850200505050600008888A8A8F4
:102F60005005050506000088502050880506060615
:102F700000FF888888780870050505060000F810AD
:102F80002040F80307070601002040408040402011
:102F90000107070602008080808080808003070789
:102FA00006010080404020404080050202060002E9
:102FB000689000000006000000000006000000000D
:102FC00000060000000000060000000000060000EF
:102FD00000000006000000000006000000000006DF
:102FE00000000000000600000000000600000000D5
:102FF00000060000000000060000000000060000BF
:1030000000000006000000000006000000000006AE
:1030100000000000000600000000000600000000A4
:10302000000600000000000600000000000600008E
:10303000000000060000000000060000000000067E
:103040000000000000060000000000060000000074
:10305000000600000000000600000000000600005E
:10306000000000060000000000060000000000064E
:10307000000000000006000000000006000001073C
:103080000706020080008080808080050707060018
:10309000002070A8A0A87020050707060000304097
:1030A00040E04050A8050505060000887050708873
:1030B000050707060000885020F820F820010707C0
:1030C00006020080808000808080050808060000DD
:1030D0003048205050209060030101060107A005F0
:1030E0000707060000F888B8B8B888F8050707068B
:1030F0000001700878887800F805050506000128A9
:1031000050A05028050303060001F8080802020237
:103110000602064080050707060000F888A8889880
:10312000A8F8050101060006F8040404060003607F
:103130009090600507070600002020F8202000F886
:1031400004050506000360902040F0030505060015
:1031500003E020E020E002020206020640800508AB
:10316000080600FF8888888898E880800507070699
:10317000000078989878181818020202060202C017
:10318000C00202020602FF4080030505060003405C
:10319000C04040E00507070600017088888870007D
:1031A000F8050505060001A0502850A005070706F0
:1031B00000008890A858B80808050707060000888E
:1031C00090B848982038050808060000C040C0485C
:1031D000D83808080507070600002000204080882E
:1031E000700508080600004020007088F8888805EF
:1031F00008080600001020007088F8888805080874
:103200000600002050007088F8888805080806002D
:10321000006890007088F88888050808060000504B
:1032200000708888F888880508080600002050206B
:103230007088F888880507070600003860A0B8E0A5
:10324000A0B80508080600FF70888080887020609C
:10325000050808060000402000F880F080F8050806
:1032600008060000081000F880F080F8050808063D
:103270000000205000F880F080F8050707060000E5
:103280005000F880F080F803080806010080400034
:10329000E0404040E0030808060100204000E04014
:1032A0004040E003080806010040A000E040404024
:1032B000E0030707060100A000E0404040E00507EA
:1032C00007060000704848E84848700508080600EE
:1032D0000068900088C8A898880508080600004083
:1032E0002070888888887005080806000010207003
:1032F00088888888700508080600002050007088BB
:103300008888700508080600006890007088888822
:1033100070050808060000500070888888887005CD
:10332000050506000188502050880508080600FFA2
:103330001070A8A8A8A87040050808060000402042
:10334000888888888870050808060000102088880A
:103350008888887005080806000020500088888842
:1033600088700508080600005000888888888870E2
:10337000050808060000102088502020202005099C
:10338000090600FFC040704848704040E00408084B
:103390000601FF609090A09090E08005080806006C
:1033A00000402000700878887805080806000010A2
:1033B0002000700878887805080806000020500072
:1033C0007008788878050808060000689000700882
:1033D000788878050707060000500070087888781C
:1033E0000508080600002050207008788878050637
:1033F00006060000D02878A0A8500506060600FFA3
:103400007080887020600508080600004020007069
:1034100088F880700508080600001020007088F801
:1034200080700508080600002050007088F8807041
:1034300005070706000050007088F8807003080830
:1034400006010080400040C04040E003080806013B
:103450000020400040C04040E00308080601004052
:10346000A00040C04040E0030707060100A0004064
:10347000C04040E0050707060000A040A010788883
:1034800070050808060000689000B0C888888805A4
:103490000808060000402000708888887005080829
:1034A0000600001020007088888870050808060053
:1034B00000205000708888887005080806000068A1
:1034C000900070888888700507070600005000701B
:1034D000888888700505050600012000F800200591
:1034E00007070600FF1070A8A8A870400508080686
:1034F00000004020008888889868050808060000B9
:103500001020008888889868050808060000205068
:10351000008888889868050707060000500088889A
:103520008898680509090600FF102000888888F837
:1035300008700407070601FFC04060506040E005C6
:1035400008080600FF50008888887808702E0A0056
:1035500046696C652862696E292064656C657465CE
:10356000640044656C6574696F6E2862696E292019
:103570006661696C6564004572726F72207772696A
:1035800074696E6720746F20454550524F4D210A73
:10359000005654726176206D696E005654726176E1
:1035A000206D696E005654726176206D696E00560A
:1035B0006D696E00566D696E00566D696E00566DD0
:1035C0006178204500566D6178204500566D617820
:1035D000204500566D6178205A00566D6178205A5A
:1035E00000566D6178205A00566D6178205900565A
:1035F0006D6178205900566D6178205900566D61D3
:1036000078205800566D6178205800566D617820FA
:1036100058004D6F74696F6E00416D6178204500F0
:10362000416D6178204500416D6178205A00416DFF
:103630006178205A00416D6178205900416D6178B0
:10364000205900416D6178205800416D6178205803
:1036500000412D74726176656C00412D7472617643
:10366000656C00412D7265747261637400412D7246
:1036700065747261637400416363656C00416363E8
:10368000656C004D6F74696F6E00526573656E6492
:103690003A20006F6B00627573793A207061757320
:1036A000656420666F7220696E7075740A006275B9
:1036B00073793A2070617573656420666F72207546
:1036C0007365720A00627573793A2070726F636570
:1036D0007373696E670A004B494C4C45442E2000B9
:1036E0004B494C4C2063617573656420627920748A
:1036F0006F6F206D75636820696E616374697665AC
:103700002074696D65202D2063757272656E74205A
:10371000636F6D6D616E643A200032E04ADF112400
:103720001FBECFEFD0E4DEBFCDBF13E0A0E0B1E01D
:10373000E2E5F8EE01E00BBF02C007900D92AE3754
:10374000B107D9F729E1AEE7B3E001C01D92AD3969
:10375000B207E1F71BE1CEE8DBE104C02197FE01EF
:103760000E948CF3CD38D107C9F70E9480DA0C94FF
:103770001CF40C9400002F923F924F925F926F9234
:103780007F928F929F92AF92BF92CF92DF92EF92F1
:10379000FF920F931F93CF93DF93CDB7DEB7C05641
:1037A000D1090FB6F894DEBF0FBECDBF0091A30DB7
:1037B00020E6029F800111240D5D134F8091D00BF4
:1037C00080FF1AC0ECEBF9E284917F013FEFE31A2E
:1037D000F30A811102C0780104C00E948938F70100
:1037E000F3CFD7018D917D01882319F00E9489388C
:1037F000F8CF8AE00E94893881E090E090938219A6
:10380000809381191092A9031092A8038FE38093EB
:10381000AC031092AB031092AA0384E0E8E9F3E052
:10382000DF011D928A95E9F7F80180810F5F1F4F34
:103830008032D1F38E34C9F4818190ED980F9A30A3
:1038400020F08D3211F08B3281F4DF0112969D0150
:103850002F5F3F4F8C9180538A3010F4D901F7CFFE
:10386000FD01119680818032D9F3F0938A19E0939B
:1038700089197F01BFEFEB1AFB0A10816AE270E041
:10388000C7010E94E4F3009731F0FC013197808179
:103890008032E1F311821D3431F1143521F11734F6
:1038A00011F1ECEBF9E284918F010F5F1F4F882338
:1038B00021F00E948938F801F6CF60918919709142
:1038C0008A1980EC97E00E94444182E20E94893884
:1038D0008AE00E94893810928219109281190E9400
:1038E00016D90C943833C701FC012081019620328F
:1038F000D9F320532A30A8F61093AC0380E090E06F
:103900006AE03196DF0111972C91022E000C330BE7
:1039100020533109689FA001699F500D1124C901EE
:10392000840F951F208120532A3058F39093AB03C6
:103930008093AA03DF0131962C912032D9F31D34F4
:10394000A9F48E319105D1F03CF487319105B1F0A5
:103950008C31910559F412C0853791053CF08737B9
:10396000910564F0803AE3E09E0741F000918919E7
:1039700060E070E0EE24E394F12C43C0B093A9031F
:10398000A093A8037FC0213209F445C03FEBB32EBA
:10399000B20E49E1A42EAB1408F45FC0AF01FA01E6
:1039A00030814F5F5F4F3032D1F340ED430F4A30EB
:1039B00008F047C0AF018B2C912C640123E0D59413
:1039C000C7942A95E1F7960128563C4F69012B2DA3
:1039D0002770D70102C0AA0FBB1F2A95E2F79D01ED
:1039E000D6013C91232B2C9341155105A1F1401B8D
:1039F000D401A258BC4F4C93208121542A3190F518
:103A0000DF01FD0131962C912111BDCF7093A903E7
:103A10006093A80337C01D3409F0B8CF80329105F8
:103A200009F0B4CFF093A903E093A80363E270E038
:103A3000CF010E94E4F3009709F47FC7DC011C92D8
:103A400021C043ED430F423008F4B4CF3B3211F0B4
:103A50000C94C932AFCF40E0CBCF6115710561F650
:103A6000BD01CACFDF01AD014F5F5F4F2C912053E5
:103A70002A3010F4DA01F7CFFD01119620812032AF
:103A8000D9F3BECF8091AC038D3409F456C7843589
:103A900011F40C948632873409F003CF2090AA03E6
:103AA0003090AB03B4E02B16310409F4E2C554F4B2
:103AB00037FC11CF80911101F2E02F1631040CF088
:103AC000F4C017C02AE52216310409F4CDC634F437
:103AD0004CE12416310409F411C6FDCE5BE5251630
:103AE000310409F4C4C68CE52816310409F4C3C6B0
:103AF000F2CE882309F4EFCE0E940638809123018C
:103B0000882321F086E991E10E94C89E0E947E38B8
:103B10008091D00B83FD79C0C090A211D090A311E9
:103B2000E090A411F090A5112091B0173091B11739
:103B30004091B2175091B317C701B6010E949DE999
:103B4000882309F462C00E945F41882309F1C09272
:103B5000B017D092B117E092B217F092B317ECEB16
:103B6000F9E284918F010F5F1F4F811103C0E2EED4
:103B7000F2E004C00E948938F801F3CF84918F01EC
:103B80000F5F1F4F882321F00E948938F801F6CF7C
:103B9000C090A211D090A311E090A411F090A511B3
:103BA0002091B0173091B1174091B2175091B317CF
:103BB000C701B6010E9456F020E030E048E453E42B
:103BC0000E94B7F218160CF5C092B017D092B11738
:103BD000E092B217F092B317ECEBF9E284918F0107
:103BE0000F5F1F4F811103C0E3ECF2E004C00E949D
:103BF0008938F801F3CF84918F010F5F1F4F88231D
:103C000021F00E948938F801F6CF20919611309169
:103C1000971140919811509199116091A41770914A
:103C2000A5178091A6179091A7170E949DE9811171
:103C30001DC020919A1130919B1140919C1150917F
:103C40009D116091A8177091A9178091AA17909162
:103C5000AB170E949DE9811109C060912A01709102
:103C60002B0180912C0190912D011AC060911501BA
:103C700070911601072E000C880B990B0E94A4E985
:103C800020912A0130912B0140912C0150912D015E
:103C90000E9403EA2AE037ED43E25CE30E9403EA74
:103CA0000E94C9350E94BF3516CE882309F413CE71
:103CB0000E94063882E50E94F937882309F43CC146
:103CC0000E9497374B015C0120E030E0A9010E947F
:103CD0009DE9882309F45CC12091A4173091A517B0
:103CE0004091A6175091A7172DA73EA74FA758ABF5
:103CF0008091A8179091A917A091AA17B091AB171E
:103D000089AB9AABABABBCAB2091961130919711BC
:103D1000409198115091991129AF3AAF4BAF5CAFD8
:103D200080919A1190919B11A0919C11B0919D113D
:103D30008DAB9EABAFABB8AF6DA57EA58FA598A997
:103D40000E949DE981110DC02DA93EA94FA958AD32
:103D500069A97AA98BA99CA90E949DE9882309F4E5
:103D600017C111E092E02916310409F010E020E0BB
:103D700030E0A901C501B4010E949DE9881F882790
:103D8000881F181759F020E030E040E85FEB2996D3
:103D90002CAF3DAF4EAF5FAF29970AC080E090E0F7
:103DA000A0E8BFE329968CAF9DAFAEAFBFAF299718
:103DB0002DA53EA54FA558A969AD7AAD8BAD9CAD9B
:103DC0000E9456F025966CAF7DAF8EAF9FAF2597C2
:103DD00029A93AA94BA95CA96DA97EA98FA998AD7B
:103DE0000E9456F06B017C0125962CAD3DAD4EAD89
:103DF0005FAD2597CA01B9010E9403EA2B013C017E
:103E0000A7019601C701B6010E9403EA9B01AC011C
:103E1000C301B2010E9457F00E9405F321966CAFD6
:103E20007DAF8EAF9FAF219720E030E040E05FE3B1
:103E30000E9403EA2B013C01A5019401C501B401D4
:103E40000E9403EA4B015C01A3019201C301B2018C
:103E50000E9403EA9B01AC01C501B4010E9456F027
:103E60000E9405F329962CAD3DAD4EAD5FAD29976F
:103E70000E9403EA4B015C01C701B60190582196EC
:103E80002CAD3DAD4EAD5FAD21970E9451F1A50126
:103E900094010E9403EA6B017C0129AD3AAD4BAD60
:103EA0005CAD6DA57EA58FA598A90E9457F020E076
:103EB00030E040E05FE30E9403EA9B01AC01C701F0
:103EC000B6010E9457F02DA53EA54FA558A90E9406
:103ED00056F06B017C012DA93EA94FA958AD69A9E7
:103EE0007AA98BA99CA90E9457F020E030E040E01D
:103EF0005FE30E9403EA2B013C0121962CAD3DAD0E
:103F00004EAD5FAD219725966CAD7DAD8EAD9FAD6D
:103F100025970E9451F1A50194010E9403EA9B019B
:103F2000AC01C301B2010E9457F029A93AA94BA9DB
:103F30005CA90E9456F014C089E40E94F9378823D6
:103F400029F00E9497376B017C0103C0C12CD12C52
:103F500076018AE40E94F9378823E9F00E949737B6
:103F600069AF7AAF8BAF9CAF20E030E0A901C70109
:103F7000B6010E949DE981111BC020E030E0A9013B
:103F800069AD7AAD8BAD9CAD0E949DE9811110C0E9
:103F9000E4E8FAE15BC320E030E0A901C701B60123
:103FA0000E949DE98823A1F319AE1AAE1BAE1CAE88
:103FB000A701960150582DA73EA74FA758AB89AD32
:103FC0009AADABADBCADB05889AB9AABABABBCABAB
:103FD000CA01B9010E9403EA4B015C0129A93AA96F
:103FE0004BA95CA9CA01B9010E9403EA9B01AC017B
:103FF000C501B4010E9457F00E9405F365966CAFAD
:104000007DAF8EAF9FAF65972091A4173091A51714
:104010004091A6175091A7172DAB3EAB4FAB58AFB1
:10402000A70196016DA97EA98FA998AD0E9457F0AE
:1040300029966CAF7DAF8EAF9FAF29978091A8175F
:104040009091A917A091AA17B091AB1721968CAFA8
:104050009DAFAEAFBFAF21979C01AD0169AD7AAD09
:104060008BAD9CAD0E9457F069966CAF7DAF8EAF63
:104070009FAF6997209196113091971140919811B7
:10408000509199112D962CAF3DAF4EAF5FAF2D974C
:1040900029962CAD3DAD4EAD5FAD29972D966CADFB
:1040A0007DAD8EAD9FAD2D970E9456F06B017C01CA
:1040B00080919A1190919B11A0919C11B0919D11AA
:1040C00061968CAF9DAFAEAFBFAF619769962CADD7
:1040D0003DAD4EAD5FAD6997BC01CD010E9456F07C
:1040E0004B015C012091AC173091AD174091AE1798
:1040F0005091AF176D962CAF3DAF4EAF5FAF6D9740
:1041000060919E1170919F118091A0119091A111C9
:104110000E9456F025966CAF7DAF8EAF9FAF25976E
:10412000A70196016DA57EA58FA598A90E9403EA17
:104130002B013C01A501940169A97AA98BA99CA92D
:104140000E9403EA9B01AC01C301B2010E9457F037
:104150002B013C01A50194016DA57EA58FA598A911
:104160000E9403EA4B015C01A701960169A97AA9A3
:104170008BA99CA90E9403EA9B01AC01C501B40173
:104180000E9456F0A30192010E94D6F06B017C01BF
:1041900020E030E0A9010E949DE987FF0AC02BEDD5
:1041A0003FE049EC50E4C701B6010E9457F06B01B3
:1041B0007C0132E02316310451F42BED3FE049EC51
:1041C00050E4C701B6010E9456F06B017C0120E06B
:1041D00030E0A901C701B6010E949DE9811126C006
:1041E0002D962CAD3DAD4EAD5FAD2D976DA97EA941
:1041F0008FA998AD0E949DE9811118C061962CADE0
:104200003DAD4EAD5FAD619721966CAD7DAD8EAD90
:104210009FAD21970E949DE9811108C01BEDC12E21
:104220001FE0D12E19ECE12E10E4F12EA70196012A
:1042300065966CAD7DAD8EAD9FAD65970E9403EA2E
:104240009B01AC010E9403EA4B015C0125962CAD59
:104250003DAD4EAD5FAD2597CA01B9010E9403EA9D
:104260009B01AC01C501B4010E9457F00E9405F307
:104270004B015C012FE632E143E85AE30E949DE9DD
:1042800087FDDEC1C501B4010E94F9F10E94CAF1A7
:104290007EAF6DAF672B21F421E030E03EAF2DAF54
:1042A0004090B0175090B1176090B2177090B3174C
:1042B000ADACBEACB50180E090E00E94A2E94B013C
:1042C0005C019B01AC01C701B6010E9451F16DABCD
:1042D0007EAB8FAB98AFA501940125966CAD7DADFB
:1042E0008EAD9FAD25970E9451F165966CAF7DAF65
:1042F0008EAF9FAF6597A30192016091A21170915B
:10430000A3118091A4119091A5110E9456F0A501CE
:1043100094010E9451F1A1966CAF7DAF8EAF9FAF1B
:10432000A1972DA93EA94FA958ADCA01B9010E9474
:1043300003EA20E030E040E05FE30E9403EA9B01F3
:10434000AC0160E070E080E89FE30E9456F02596A3
:104350006CAF7DAF8EAF9FAF25976D962CAD3DAD09
:104360004EAD5FAD6D9729873A874B875C874D8649
:104370005E866F86788A6091150170911601072E0E
:10438000000C880B990B0E94A4E920912A0130911E
:104390002B0140912C0150912D010E9403EA2AE04B
:1043A00037ED43E25CE30E9403EA2D966CAF7DAFEC
:1043B0008EAF9FAF2D970E94DFC19B01AC012853A8
:1043C0003F4F4F4F5F4F61962CAF3DAF4EAF5FAF4A
:1043D00061974DA45EA46FA478A822242394312C65
:1043E000B9E1DB2EADACBEACA214B30409F414C128
:1043F0000E94EE4F0E94DFC1DC01CB0161962CAD23
:104400003DAD4EAD5FAD6197821B930BA40BB50B19
:10441000B7FD11C00E94DFC19B01AC0128533F4F83
:104420004F4F5F4F61962CAF3DAF4EAF5FAF61977F
:1044300080E00E94A0D6DA94DD2009F441C029A9C9
:104440003AA94BA95CA925966CAD7DAD8EAD9FAD0B
:1044500025970E9403EA4B015C019201A3016DA91B
:104460007EA98FA998AD0E9403EAA50194010E943C
:1044700057F07B018C019201A30125966CAD7DADB7
:104480008EAD9FAD25970E9403EA4B015C0129A9DF
:104490003AA94BA95CA96DA97EA98FA998AD0E94E4
:1044A00003EA9B01AC01C501B4010E9456F02B0147
:1044B0003C01C701D80189AB9AABABABBCAB4DC0DB
:1044C000B10180E090E00E94A2E92DA93EA94FA988
:1044D00058AD0E9403EA4B015C010E944CF16B0154
:1044E0007C01C501B4010E94F7F24B015C01A701F8
:1044F00096016DA57EA58FA598A90E9403EA2B01C0
:104500003C01A501940169AD7AAD8BAD9CAD0E94D3
:1045100003EAA30192010E9457F02B013C01A5017F
:1045200094016DA57EA58FA598A90E9403EA4B0171
:104530005C01A701960169AD7AAD8BAD9CAD0E947F
:1045400003EA9B01AC01C501B4010E9456F069ABBE
:104550007AAB8BAB9CABF9E1DF2E9201A3012996DC
:104560006CAD7DAD8EAD9FAD29970E9457F06983EC
:104570007A838B839C8329A93AA94BA95CA9699664
:104580006CAD7DAD8EAD9FAD69970E9457F06D8388
:104590007E838F83988765962CAD3DAD4EAD5FAD24
:1045A000659769857A858B859C850E9457F0698718
:1045B0007A878B879C87A1962CAD3DAD4EAD5FADC4
:1045C000A1976D857E858F8598890E9457F06D87AC
:1045D0007E878F87988B80912301882321F0CE01DD
:1045E00001960E94C89EC0907A092D96ECACFDAC55
:1045F0000EAD1FAD2D979E01235F3F4FAE01475F6C
:104600005F4FBE016B5F7F4FCE0101960E94F94262
:104610003FEF231A330AE6CEC0907A092D96ECAC10
:10462000FDAC0EAD1FAD2D9722EA31E14EE951E10F
:104630006AE971E186E991E10E94F9420E94BF3581
:104640000E947E3848C90E948938F80184918F0100
:104650000F5F1F4F8111F7CFEDEFF2E084918F01D3
:104660000F5F1F4F882309F436C90E948938F8016B
:10467000F5CF80E50E94F937882329F00E9453374F
:104680006B017C0103C0C12CD12C760183E50E9413
:10469000F937882361F00E94973720E030E04AE73D
:1046A00054E40E9403EA0E94CAF16B017C010E945B
:1046B000DA5280913401811105C060E083E193E01A
:1046C0000E949BC60E947E388091FF0B9091000C47
:1046D000A091010CB091020CC80ED91EEA1EFB1E5F
:1046E0000E94DFC1DC01CB018C199D09AE09BF0915
:1046F000B7FFF1C880E00E94A0D6F2CF0E94DA5244
:1047000080912A0190912B01A0912C01B0912D0153
:104710008093A4039093A503A093A603B093A7034B
:1047200080911501909116019093A3038093A203A9
:1047300084E690E090931601809315010E947E38E4
:1047400081E08093EB0B88E50E94CA37E82E89E56B
:104750000E94CA37082F8AE50E94CA37F82EE11056
:1047600005C0011105C011E0182705C0011102C0E4
:1047700010E001C0182F0E94B535111105C0E110DD
:1047800003C0002309F444C020E030E040EA50E4D4
:104790006091861170918711809188119091891193
:1047A0000E9457F060939E1170939F118093A01107
:1047B0009093A1112091AC173091AD174091AE1795
:1047C0005091AF170E94B7F218167CF419821A8222
:1047D0001B821C829E012F5F3F4F4EE951E168EA28
:1047E00077E184EA97E10E94C334111105C0E1101A
:1047F00003C0011107C00CC080E090E00E945A9FE6
:104800001123B9F381E090E00E945A9F111102C078
:10481000FF2021F082E090E00E945A9F0E94EB3638
:104820008091C70B8093EB0B8091A4039091A5031B
:10483000A091A603B091A70380932A0190932B0126
:10484000A0932C01B0932D018091A2039091A3031A
:1048500090931601809315010E947E3883E0809327
:104860008A010E94657937C81092A10334C881E09B
:104870008093A10330C885E40E94F937B82E8111D6
:1048800002C00E94DA5264E9862E61E0962E74EA34
:10489000C72E77E1D72EEAE8EE2EE1E1FE2E00E00A
:1048A00010E0A12C33243394D4018D914D010E944A
:1048B000F937882359F1F601408051806280738076
:1048C0000E949737D6016D937D938D939C93139798
:1048D0000330E1F0023011F43092EE0BA3019201AB
:1048E0000E9456F09B01AC01F701608171818281C9
:1048F00093810E9457F0D7016D937D938D939C9384
:104900001397C8010E94E235AA24A3940F5F1F4F9A
:10491000B4E0CB0ED11CE4E0EE0EF11C0430110526
:1049200019F6AA2019F00E94EB3603C0B1100E94BC
:10493000F5C70E9465790C946B1C8091AA03909135
:10494000AB038137910509F420C60CF0D0C08B343D
:10495000910509F438C50CF05FC08831910509F460
:1049600096C2B4F58231910509F4E2C6BCF497FF12
:1049700002C00C946B1C823091050CF4A7C14197C6
:1049800011F00C946B1C60E080E593E00E949BC6E4
:104990005E985E9815985E980C946B1C8531910515
:1049A00009F45CC23CF4449711F00C946B1CE8E6EB
:1049B000F3E014C28631910509F456C2479711F00D
:1049C0000C946B1C8091A8039091A903FC0156C222
:1049D0008C31910509F4C4C264F48A31910509F45B
:1049E00063C20CF080C210925F120E94A2C80C94A5
:1049F0006B1C8F31910509F4F0C32CF44E9709F428
:104A0000B9C20C946B1C8032910509F49CC38A973F
:104A100009F499C40C946B1C8836910509F4DFC421
:104A20000CF046C08235910509F479C644F58D3401
:104A3000910509F4D0C40CF4CAC48135910511F074
:104A40000C946B1C0E949A9D0E94DA520E940CD911
:104A50001092401510923F150E9473C81092B81121
:104A60001092B71168EE73E080E090E00E9480C57C
:104A700060E084E794E00E949BC60C946B1C843534
:104A8000910509F455C60CF44EC68535910509F417
:104A900082C68C35910511F00C946B1C24E9C22E52
:104AA00021E0D22E34EBE32E37E1F32E10E08EC658
:104AB0008C36910509F465C53CF48A36910509F4F4
:104AC000FDC50CF4ADC519C68E36910509F4D3C4E5
:104AD0000CF4ECC58F36910509F4E0C480379105DC
:104AE00011F00C946B1C81E694E00E9446A3833D78
:104AF000910509F4E4C00CF06BC08139910511F403
:104B00000C94432D5CF58637910509F474C7A4F421
:104B10008337910509F4D7C00CF4D8C685379105C1
:104B200011F00C946B1C60E08091A8039091A90394
:104B30000E94B9C60C946B1C8837910511F40C9433
:104B4000362D0CF48FC78937910511F40C943D2D47
:104B50008C38910509F446C50C946B1C893C910571
:104B600011F40C94122E7CF48E3B910509F4A2C52D
:104B7000883C910511F40C94BE2D8B39910511F0F0
:104B80000C946B1C6AC58C3C910511F40C944E2E50
:104B90006CF48B3C910511F00C946B1C74E9E72EBE
:104BA00071E0F72E0DEC18E10C943E2E8D3C910532
:104BB00011F40C94BA2E8E3C910511F00C946B1CE0
:104BC00064E9E62E61E0F62E00E010E00C94272F59
:104BD0008039F1E09F0711F40C94563184F58C3242
:104BE00031E0930711F40C9432308CF48D3D910533
:104BF00011F40C94E72F823E910511F40C940330CC
:104C00008C3D910511F00C946B1C0C94D82F8E32B6
:104C100051E0950711F40C94FB3014F40C945C30C3
:104C20008F32B1E09B0711F40C94523183369140DE
:104C300011F00C946B1CE4E8FAE10C945E32863FB0
:104C4000F1E09F0711F40C944432FCF48C3A31E00B
:104C5000930711F40C945A314CF48A39914011F0B5
:104C60000C946B1C0E940C790C946B1C843FA1E08B
:104C70009A0711F40C944032853F914011F00C9446
:104C80006B1C0E9471B80C946B1C8835E2E09E0787
:104C900011F40C9457323CF4873F914011F40C947A
:104CA00048320C946B1C803A33E0930709F488C2B5
:104CB000873E934011F40C9472320C946B1CECEB15
:104CC000F9E20C94402FEFE5F5E009C6A090A803A7
:104CD000B090A90380E50E94F937882359F00E941B
:104CE00053376B017C0111E0672B682B692B31F482
:104CF00010E004C010E0C12CD12C760183E50E94A5
:104D0000F9378823F1F00E94973720E030E04AE736
:104D100054E40E9403EA0E94CAF16B017C01111164
:104D200012C0672B682B692B71F4A114B10459F0E0
:104D3000D5018C91882339F061E0C5010E94B9C684
:104D400007C0112391F360E08DE393E00E949BC6BE
:104D500083E090E0909382198093811981E08093A1
:104D6000B6110E94DA520E947E38C114D104E104C7
:104D7000F104E1F08091FF0B9091000CA091010CE7
:104D8000B091020CC80ED91EEA1EFB1E0E94DFC1A4
:104D9000DC01CB018C199D09AE09BF09B7FF1AC010
:104DA0008091B61181110C94D33214C08091B61148
:104DB000882321F080E00E94A0D6F8CF80915F1276
:104DC00060E0882319F08EE293E002C08CE193E06A
:104DD0000E949BC61092B6110C946B1C84918F019B
:104DE0000F5F1F4F882321F00E948938F801F6CF0A
:104DF000109204151092031580E992E10E947BA5A0
:104E00008BE1E0E9F2E1DE01159601900D928A95C1
:104E1000E1F780918E1290918F129C838B838CE9A5
:104E200091E09A83898340E050E0BE016F5F7F4F3D
:104E30008CE193E00E94D064CE0101960E943DA0D7
:104E4000E9E5F3E084918F010F5F1F4F882311F490
:104E50000C946B1C0E948938F801F4CF0E945063B7
:104E60000E9445A00C946B1C10925F12109260126D
:104E70000C946B1C203209F4108231962081211190
:104E8000F9CF40E061E00E94DB660C946B1C0E944D
:104E900073C880916012882319F081E080935F12BB
:104EA0000E9433C80C946B1C80916012882311F40B
:104EB0000C946B1C83E50E94F937882311F40C9441
:104EC0006B1C0E946337AB01BC014093FA145093F2
:104ED000FB146093FC147093FD148AE294E10E9429
:104EE00055CD0C946B1C80916012811103C0EBE8CE
:104EF000F3E02AC0E9E7F3E084918F010F5F1F4FD1
:104F0000882321F00E948938F801F6CF6091FA14C5
:104F10007091FB148091FC149091FD144AE00E9462
:104F200090388FE20E9489386091F6147091F714DE
:104F30008091F8149091F9144AE00E9490388AE028
:104F40000E9489380C946B1C84918F010F5F1F4F56
:104F5000882311F40C946B1C0E948938F801F4CF5B
:104F600040E060E08091A8039091A9030E94DB6675
:104F70000C946B1C80916012882311F40C946B1CB0
:104F80008AE294E10E9422CD8AE294E10E941DA46B
:104F900010925E1210925D12E090A803F090A903A7
:104FA00080916012882311F40C946B1C10925F1294
:104FB00080912D14882321F08AE294E10E941DA49F
:104FC000FE0131966F01CF010E94C2CA8CE892E1C6
:104FD0009093AC128093AB12D7018C918F3209F071
:104FE00060C06FE270E0C7010E94E4F38C010F5FC4
:104FF0001F4F09F45CC06FE270E0C8010E94E4F347
:105000005C01009709F454C00817190708F050C054
:105010004C01801A910AA401B801CE0180960E9429
:105020000DF4E0E2F0E0EC0FFD1FE80DF91D108239
:105030008E01005E1F4FF80181918F01882319F0C6
:105040000E948938F8CF8AE00E9489386091AB12BB
:105050007091AC126115710511F06C5F7F4F21E00A
:10506000AE01405E5F4FCE0105960E94CCA9811132
:1050700012C0BE01605E7F4F82EC93E00E9444410B
:105080008EE20E9489388AE00E948938C6010E9417
:105090003DA00C946B1CD092AC12C092AB12850157
:1050A000A6CF8DEA92E19093AC128093AB12870168
:1050B0008091AB129091AC12009709F00496B80160
:1050C0000E9480CF811103C0EAEAF3E021C0ECE93D
:1050D000F3E084917F012FEFE21AF20A882321F096
:1050E0000E948938F701F5CFD8018D918D01882371
:1050F00019F00E948938F8CF8AE00E94893810920E
:10510000FA141092FB141092FC141092FD1416C0A5
:1051100084917F01BFEFEB1AFB0A882321F00E94E4
:105120008938F701F5CFF80181918F01882319F0B3
:105130000E948938F8CF8EE20E948938C6010E9409
:105140003DA00C946B1C80915F1281110E94DA5279
:10515000E090A803F090A90380E50E94CA37182FB9
:10516000882319F00E948737182F809160128823B6
:1051700011F40C946B1C412F61E0C7010E94DB66A7
:1051800083E50E94F937882381F00E946337AB01E1
:10519000BC014093FA145093FB146093FC14709379
:1051A000FD148AE294E10E9455CD8091601288231B
:1051B00019F081E080935F1211110C946B1C70CE7A
:1051C0008091A8039091A90321E020935E1240E012
:1051D00060E00E94DB660C946B1C0E949A647B0169
:1051E0008C0120E831E541E050E00E94F3EFC90175
:1051F0006DE671E00E9464F34B015C01C801B701E8
:1052000020E13EE040E050E00E94F3EFCA01B90126
:1052100028E130E040E050E00E94F3EF762E672E68
:10522000C62ED72E5CE3252E312C412C512CC801E3
:10523000B701A20191010E94F3EFF62EE72ECA01F9
:10524000B901A20191010E94F3EFCB018E010F5F22
:105250001F4F8114910499F0EF92FF927F936F9307
:105260006F927F92BF92AF929F928F928EEF93E058
:105270009F938F931F930F930E9435E913C0A1143E
:10528000B104B1F0EF92FF927F936F936F927F9290
:10529000BF92AF928EEE93E09F938F931F930F93E5
:1052A0000E9435E90FB6F894DEBF0FBECDBF30C007
:1052B000CD2879F0EF92FF927F936F936F927F9258
:1052C00082EE93E09F938F931F930F930E9435E993
:1052D000E9CF892B69F0EF92FF927F936F938AED6C
:1052E00093E09F938F931F930F930E9435E9DACF3A
:1052F000EF92FF9286ED93E09F938F931F930F930E
:105300000E9435E90F900F900F900F900F900F9023
:1053100060E0C8010E94B9C6ECEBF9E284917F011C
:10532000BFEFEB1AFB0A882321F00E948938F701AE
:10533000F5CFB80182E194E00E9444418AE00E94E6
:1053400089380C946B1C83E50E94F937882311F48B
:105350000C946B1C0E947337E82E80E50E94F9378D
:10536000882311F40C946B1C0E946337162FC62EF1
:10537000D72ED7FE02C00C946B1CE7E0F7E08491B7
:10538000181303C0E4E8FAE10AC0319627E0EF32CF
:10539000F207A9F70C94D8320E948938F801849159
:1053A0008F010F5F1F4F8111F7CFEFE1F4E0849180
:1053B0008F010F5F1F4F882311F40C946B1C0E9408
:1053C0008938F801F4CF0E9433C80C946B1C0E94FA
:1053D000A2C80C946B1C0E9466B30C946B1C88E6EC
:1053E00090E00E94FD3881110C946B1C8091D00BD1
:1053F00083FF02C00C946B1C83E50E94F93788235D
:10540000B1F10E9497370E94C3F1CB010E9420C6E0
:105410000E94973720E030E04AEA52E40E949DE97A
:1054200018163CF00E9466B360E08AE394E00E94A4
:105430009BC60E94973720911A1530911B154091F9
:105440001C1550911D150E94B7F2181684F48AE0BD
:1054500092E09F938F938EE294E09F938F931F929D
:105460000E94DAC70F900F900F900F900F900E943C
:105470007F410C946B1C8EE40E94F937882311F451
:105480000C946B1C0E94633760937D1970937E1996
:1054900080937F19909380190C946B1C83E50E9474
:1054A000CA37882359F083E50E94F937882319F019
:1054B0000E94733701C080E08093D00BECEBF9E2DF
:1054C00084918F010F5F1F4F811103C0EAE5F4E063
:1054D00004C00E948938F801F3CF84918F010F5FD7
:1054E0001F4F882321F00E948938F801F6CF809160
:1054F000D00B811103C0E6E5F4E034C04CE4C42EC7
:1055000044E0D42EE12CF12C20E08091D00B90E0EF
:105510000E2C02C0959587950A94E2F780FF17C07C
:10552000BB24B394B20E222319F08CE20E94893876
:10553000F60185919491FC0184918F010F5F1F4FBB
:10554000882321F00E948938F801F6CF2B2D3FEFF8
:10555000E31AF30A42E0C40ED11C55E0E516F1044B
:10556000A1F60AC084918F010F5F1F4F882321F09D
:105570000E948938F801F6CF8AE00E9489380C949D
:105580006B1C109277010C946B1C83E50E94F93719
:10559000811103C0ECEBF9E20DC00E9473378093D8
:1055A0008B018D3310F40C946B1C8CE380938B0176
:1055B0000C946B1C84918F010F5F1F4F882321F087
:1055C0000E948938F801F6CF40918B0150E060E0ED
:1055D00070E08AE694E00E94F1408AE00E948938F7
:1055E0000C946B1C8091D00B83FF02C00C946B1C3D
:1055F00083E50E94F937882311F40C946B1C0E94F8
:1056000097370E94C3F16E37710514F06DE770E0B3
:1056100070933E1560933D150E944E9D0C946B1C3B
:1056200089E690E00E94FD38811111C0E1E7F4E0C5
:1056300084918F010F5F1F4F882321F00E948938CA
:10564000F801F6CF0E94247A8AE00E9489381092ED
:105650008219109281190C94383383E50E94F9372E
:10566000882311F40C946B1C0E9473378093871964
:105670008D3318F08CE3809387190E94DFC16B0192
:105680007C012091871930E0A8EEB3E00E9447F03A
:10569000C60ED71EE81EF91EC0928319D092841937
:1056A000E0928519F09286190C946B1C0E94298057
:1056B0000C946B1C0E94827E0C946B1C83E50E94F0
:1056C000F937882339F00E9463378B016F3F7105EA
:1056D00019F010F00FEF10E080E50E94F93781110A
:1056E00006C01093401500933F150C946B1C0E944C
:1056F000733781110C946B1CF4CF80E50E94F9374D
:10570000811106C01092401510923F150C946B1C2D
:105710000E946337672B11F00C946B1CF3CF10922F
:10572000A0030C946B1C81E08093A0030C946B1C71
:1057300083E50E94F9378823A1F00E94973720E083
:1057400030E04AE754E40E9403EA0E94CAF1609301
:105750008C0170938D0180938E0190938F010C9436
:105760006B1C88E50E94CA3781113BC789E50E94FE
:10577000CA37811136C78AE50E94CA37811131C7FD
:1057800085E40E94CA3781112CC70E94DA520E9418
:105790000CD90C946B1C83E50E94CA37882311F442
:1057A0000C946B1C0E94973720E030E04AE754E4E9
:1057B0000E9403EA0E94CAF160938B1970938C19BE
:1057C00080938D1990938E190C946B1CD6018D913A
:1057D0006D010E94CA37882309F46DC0133009F0A7
:1057E00063C00E9497374B015C0120E030E040EA43
:1057F00051E40E949DE987FF4EC0A501940160918C
:10580000C0177091C1178091C2179091C3170E9461
:1058100051F12B013C019B01AC016091BD0D7091D8
:10582000BE0D8091BF0D9091C00D0E9403EA609360
:10583000BD0D7093BE0D8093BF0D9093C00DA3015D
:1058400092016091D9187091DA188091DB189091CB
:10585000DC180E9403EA6093D9187093DA188093D9
:10586000DB189093DC18609144047091450480919A
:105870004604909147040E94A2E9A30192010E946C
:1058800003EA0E94CAF16093440470934504809334
:105890004604909347048092C0179092C117A0923B
:1058A000C217B092C31707C00E949737F7016083F1
:1058B0007183828393831F5FF4E0EF0EF11C143039
:1058C00009F084CF0E94CD420C946B1C0E94DA52E6
:1058D0000E9465790C946B1C0E948938F8018491B0
:1058E0008F010F5F1F4F8111F7CFE1E5F5E003C096
:1058F0000E948938F80184918F010F5F1F4F811139
:10590000F7CFEAE3F5E003C00E948938F8018491FB
:105910008F010F5F1F4F8111F7CFEAE2F5E003C05F
:105920000E948938F80184918F010F5F1F4F811108
:10593000F7CFE9E1F5E003C00E948938F8018491CE
:105940008F010F5F1F4F8111F7CFE8E0F5E003C033
:105950000E948938F80184918F010F5F1F4F8111D8
:10596000F7CFE9EFF4E003C00E948938F801849191
:105970008F010F5F1F4F8111F7CFE4EEF4E003C0FA
:105980000E948938F80184918F010F5F1F4F8111A8
:10599000F7CFEEECF4E003C00E948938F80184915F
:1059A0008F010F5F1F4F8111F7CFE9EBF4E003C0C8
:1059B0000E948938F80184918F010F5F1F4F811178
:1059C000F7CFECE9F4E003C00E948938F801849134
:1059D0008F010F5F1F4F8111F7CFE4E8F4E084914E
:1059E0008F010F5F1F4F882311F40C946B1C0E94D2
:1059F0008938F801F4CF85E40E94CA37882381F002
:105A00000E948737882361F0ECEBF9E284918F01E3
:105A10000F5F1F4F882321F00E948938F801F6CFCD
:105A200081E40E94CA37882381F00E948737882347
:105A300061F0E7E2F6E084918F010F5F1F4F88234A
:105A400021F00E948938F801F6CF0091A803109147
:105A5000A903D8018D918D01882309F48DCD0E9471
:105A60008938F7CF0E94306B0C946B1C81E08093D7
:105A7000EB0B8093C70B0C946B1C1092EB0B1092EA
:105A8000C70B0C946B1C83E50E94F937882319F02F
:105A90000E94633702C060E070E08B011127023082
:105AA0001105DCF0E4E8FAE184918F010F5F1F4FEC
:105AB000811103C0EBE2F6E004C00E948938F801CE
:105AC000F3CF84918F010F5F1F4F882311F40C9443
:105AD0006B1C0E948938F801F4CF88E40E94F937E2
